:107000000C942A380C943C380C943C380C943C3842
:107010000C943C380C943C380C943C380C943C3820
:107020000C943C380C943C380C943C380C943C3810
:107030000C943C380C945F3B0C943C380C943C38DA
:107040000C943C380C943C380C943C380C943C38F0
:107050000C943C3811241FBECFE5D8E0DEBFCDBF75
:1070600011E0A0E6B0E001C01D92AD36B107E1F736
:107070000E944A380C94BD3B0C940038882329F4B4
:1070800081E08BBF8BB78D7F03C081E08BBF82E037
:107090008BBF08950F931F9380E090E00E94A43B64
:1070A000082F81E090E00E94A43B10E0813009F4B9
:1070B00011E0013011F4112329F181E067E041E092
:1070C0000E94B13881E067E041E00E9442390E94AD
:1070D0004C3B84E060E040E00E94B13884E061E035
:1070E00041E00E94B13881E00E943E38112339F01E
:1070F0000E944C3A81E090E060E00E94AC3B0E942C
:10710000563AFDCF0C94000081E090E01F910F9162
:107110000895823089F0833018F4813009F505C074
:10712000833089F08430E1F415C0662311F41ABA73
:1071300008958FEF8ABB0895662311F417BA089556
:107140008FEF87BB0895662311F414BA08958FEF6B
:1071500084BB0895662311F411BA08958FEF81BBA3
:107160000895823049F1833020F4813009F075C0F0
:1071700007C0833009F43CC0843009F06EC053C0AE
:10718000442361F42AB381E090E002C0880F991F84
:107190006A95E2F7809582238ABB0895413009F011
:1071A0005CC02AB381E090E002C0880F991F6A9505
:1071B000E2F7282B2ABB0895442361F427B381E02A
:1071C00090E002C0880F991F6A95E2F780958223AC
:1071D00087BB0895413009F040C027B381E090E0BB
:1071E00002C0880F991F6A95E2F7282B27BB0895E4
:1071F000442361F424B381E090E002C0880F991F1A
:107200006A95E2F78095822384BB0895413029F581
:1072100024B381E090E002C0880F991F6A95E2F7DD
:10722000282B24BB0895442361F421B381E090E02E
:1072300002C0880F991F6A95E2F78095822381BB6F
:107240000895413051F421B381E090E002C0880FED
:10725000991F6A95E2F7282B21BB0895823061F0CF
:10726000833018F4813069F405C0833039F08430FC
:1072700041F406C06BBB089568BB089565BB0895D3
:1072800062BB0895823031F1833020F4813009F0FF
:107290006FC006C08330C1F1843009F069C04EC0B0
:1072A000413059F42BB381E090E002C0880F991F60
:1072B0006A95E2F7282B2BBB0BC02BB381E090E043
:1072C00002C0880F991F6A95E2F7809582238BBBD5
:1072D0008BB30895413059F428B381E090E002C0A7
:1072E000880F991F6A95E2F7282B28BB0BC028B39B
:1072F00081E090E002C0880F991F6A95E2F78095BF
:10730000822388BB88B30895413059F425B381E0C6
:1073100090E002C0880F991F6A95E2F7282B25BBE1
:107320000BC025B381E090E002C0880F991F6A95D9
:10733000E2F78095822385BB85B30895413061F4DF
:1073400022B381E090E002C0880F991F6A95E2F7AE
:10735000282B22BB82B3089522B381E090E002C0C3
:10736000880F991F6A95E2F78095822382BB82B3CA
:107370000895823061F0833018F4813069F405C0DB
:10738000833039F0843041F406C089B3089586B360
:10739000089583B3089580B30895823061F08330F7
:1073A00018F48130D9F405C0833039F08430B1F459
:1073B0000DC089B303C086B301C083B390E002C09F
:1073C000959587956A95E2F78170089580B390E06E
:1073D00002C0959587956A95E2F7817008950F939D
:1073E0001F93CF93DF93EC01DB017FB7F894D69521
:1073F000DC2FCC27D795C79507B600FCFDCFE199C8
:10740000FECF83E0FE0180935700E89540E050E016
:1074100061E09C9111968C911197129607B600FC31
:10742000FDCFE199FECFFA01EC0FFD1F382F20E0D0
:107430008901090F111D080160935700E895112477
:107440004E5F5F4F4038510521F707B600FCFDCF76
:10745000E199FECF85E0FE0180935700E89507B6DD
:1074600000FCFDCFE199FECF81E180935700E895C4
:107470007FBFDF91CF911F910F91089521E020935D
:107480006000FC01819180936600F0936900E093B5
:10749000680060936700089580E18093660080E54E
:1074A0000E94563B81E080936A00089580916000BD
:1074B000882309F4F0C080916600843331F185336C
:1074C00030F4803159F0813309F0CDC07FC086336C
:1074D00009F43EC0873309F0C6C069C0E091680076
:1074E000F09169008081833009F0BDC08091670010
:1074F000823009F0B8C080916A00882309F0B3C0D7
:1075000080E50E94563B81E020C080916A00813076
:1075100009F0A9C080916700833009F0A4C0E09110
:107520006800F0916900218130E0908180E0282B93
:10753000392B30936500209364002050384308F0C5
:1075400092C084E70E94563B82E080936A0090C01C
:1075500080916A00823009F086C08091670081388E
:1075600009F081C0609168007091690080916100AC
:1075700090E00E94EF3986E70E94563B80916100BF
:107580008F5F8093610080916200909163008058CA
:107590009F4F90936300809362002091640030912C
:1075A00065008217930709F063C083E0CECF809116
:1075B0006A00833009F057C080916700813009F07C
:1075C00052C087E70E94563B84E0BFCF80916A009B
:1075D000843009F042C080916700833009F03DC0DB
:1075E000E0916800F0916900A081218160916400C0
:1075F000709165004FEF5FEFE0E0F0E019C084911B
:107600004827842F82958427082E86958695802585
:10761000082E869580258770042E452F8695079421
:107620008795502D482706948795502548273196F1
:10763000E617F70720F330E09A2F80E0282B392B4C
:107640002417350751F417C0CA010197F1F72150EB
:107650003040D1F70C94000003C08FE70E94563BE6
:1076600010926A0005C010926A008FE70E94563B94
:1076700010926000089581E70E94563B80E090E000
:1076800061E00E94AC3B80E00E943E3828EE33E08F
:107690004CE251E0D9CF08958DE489B910BC86E859
:1076A00080BD88E18AB9579A789408955D9BFECF92
:1076B0008CB908955F9BFECF8CB15F9A08951F929D
:1076C0000F920FB60F9211242F933F934F935F9316
:1076D0006F937F938F939F93AF93BF93EF93FF939A
:1076E00080916C00882339F48CB180936C0181E027
:1076F00080936C0018C090916B008CB1E92FF0E082
:10770000E359FF4F8083692F6F5F60936B00809117
:107710006C01681741F410926B0010926C008DE6BA
:1077200090E00E943E3AFF91EF91BF91AF919F91FF
:107730008F917F916F915F914F913F912F910F901A
:107740000FBE0F901F901895E199FECF9FBB8EBB87
:10775000E09A99278DB30895262FE199FECF9FBB1C
:107760008EBBE09A01970DB2021631F02DBB0FB619
:0E777000F894E29AE19A0FBE0895F894FFCFC4
:040000030000700089
:00000001FF
