:100000000C942A000C943C000C943C000C943C0092
:100010000C943C000C943C000C943C000C943C0070
:100020000C943C000C943C000C943C000C943C0060
:100030000C943C000C943E000C943C000C943C004E
:100040000C943C000C943C000C943C000C943C0040
:100050000C943C0011241FBECFE5D8E0DEBFCDBF1D
:1000600011E0A0E6B0E001C01D92A336B107E1F7B0
:100070000E947B000C94B5000C9400001F920F921C
:100080000FB60F9211248F939F93EF93FF9380915C
:100090006300882339F48CB18093610081E0809300
:1000A000630020C0909162008CB1E92FF0E0EC5920
:1000B000FF4F80839F5F909362008091610098174B
:1000C00089F41092620010926300923059F480918A
:1000D0006400803139F480916500833019F481E047
:1000E00080936000FF91EF919F918F910F900FBED1
:1000F0000F901F9018951F93CF93DF938FEF8ABBBC
:1001000081E08BBB8DE489B910BC86E880BD88E1B5
:100110008AB9579A789413E0CCE2D1E08BB3812767
:100120008BBB80E197E2FE013197F1F70197D9F798
:1001300080916000813091F781E090E061E00E9461
:10014000A4000C940038EACF262FE199FECF9FBB84
:100150008EBBE09A01970DB2021631F02DBB0FB69F
:0E016000F894E29AE19A0FBE0895F894FFCF4A
:00000001FF
